{
  "contractName": "Lottery",
  "abi": [
    {
      "inputs": [],
      "stateMutability": "nonpayable",
      "type": "constructor"
    },
    {
      "inputs": [],
      "name": "currentWinner",
      "outputs": [
        {
          "internalType": "address payable",
          "name": "",
          "type": "address"
        }
      ],
      "stateMutability": "view",
      "type": "function",
      "constant": true
    },
    {
      "inputs": [],
      "name": "manager",
      "outputs": [
        {
          "internalType": "address payable",
          "name": "",
          "type": "address"
        }
      ],
      "stateMutability": "view",
      "type": "function",
      "constant": true
    },
    {
      "inputs": [
        {
          "internalType": "uint256",
          "name": "",
          "type": "uint256"
        }
      ],
      "name": "players",
      "outputs": [
        {
          "internalType": "address payable",
          "name": "",
          "type": "address"
        }
      ],
      "stateMutability": "view",
      "type": "function",
      "constant": true
    },
    {
      "inputs": [
        {
          "internalType": "uint256",
          "name": "value",
          "type": "uint256"
        }
      ],
      "name": "enter",
      "outputs": [],
      "stateMutability": "payable",
      "type": "function",
      "payable": true
    },
    {
      "inputs": [],
      "name": "pickWinner",
      "outputs": [],
      "stateMutability": "nonpayable",
      "type": "function"
    },
    {
      "inputs": [],
      "name": "getPrize",
      "outputs": [],
      "stateMutability": "payable",
      "type": "function",
      "payable": true
    },
    {
      "inputs": [],
      "name": "getPlayers",
      "outputs": [
        {
          "internalType": "address payable[]",
          "name": "",
          "type": "address[]"
        }
      ],
      "stateMutability": "view",
      "type": "function",
      "constant": true
    },
    {
      "inputs": [],
      "name": "getCurrentWinner",
      "outputs": [
        {
          "internalType": "address",
          "name": "",
          "type": "address"
        }
      ],
      "stateMutability": "view",
      "type": "function",
      "constant": true
    },
    {
      "inputs": [],
      "name": "getAmount",
      "outputs": [
        {
          "internalType": "uint256",
          "name": "",
          "type": "uint256"
        }
      ],
      "stateMutability": "view",
      "type": "function",
      "constant": true
    },
    {
      "inputs": [],
      "name": "kill",
      "outputs": [],
      "stateMutability": "nonpayable",
      "type": "function"
    }
  ],
  "bytecode": "0x608060405234801561001057600080fd5b50336000806101000a81548173ffffffffffffffffffffffffffffffffffffffff021916908373ffffffffffffffffffffffffffffffffffffffff160217905550610e5e806100606000396000f3fe6080604052600436106100915760003560e01c8063a59f3e0c11610059578063a59f3e0c14610145578063aabe2fe314610161578063c34f6b0d1461018c578063d321fe2914610196578063f71d96cb146101c157610091565b8063329bfc331461009657806341c0e1b5146100c1578063481c6a75146100d85780635d495aea146101035780638b5b9ccc1461011a575b600080fd5b3480156100a257600080fd5b506100ab6101fe565b6040516100b89190610862565b60405180910390f35b3480156100cd57600080fd5b506100d6610228565b005b3480156100e457600080fd5b506100ed6102ef565b6040516100fa919061089e565b60405180910390f35b34801561010f57600080fd5b50610118610313565b005b34801561012657600080fd5b5061012f61049f565b60405161013c9190610977565b60405180910390f35b61015f600480360381019061015a91906109d4565b61052d565b005b34801561016d57600080fd5b506101766105dc565b604051610183919061089e565b60405180910390f35b610194610602565b005b3480156101a257600080fd5b506101ab6106fd565b6040516101b89190610a10565b60405180910390f35b3480156101cd57600080fd5b506101e860048036038101906101e391906109d4565b610705565b6040516101f5919061089e565b60405180910390f35b6000600160009054906101000a900473ffffffffffffffffffffffffffffffffffffffff16905090565b60008054906101000a900473ffffffffffffffffffffffffffffffffffffffff1673ffffffffffffffffffffffffffffffffffffffff163373ffffffffffffffffffffffffffffffffffffffff16146102b6576040517f08c379a00000000000000000000000000000000000000000000000000000000081526004016102ad90610aae565b60405180910390fd5b60008054906101000a900473ffffffffffffffffffffffffffffffffffffffff1673ffffffffffffffffffffffffffffffffffffffff16ff5b60008054906101000a900473ffffffffffffffffffffffffffffffffffffffff1681565b60008054906101000a900473ffffffffffffffffffffffffffffffffffffffff1673ffffffffffffffffffffffffffffffffffffffff163373ffffffffffffffffffffffffffffffffffffffff16146103a1576040517f08c379a000000000000000000000000000000000000000000000000000000000815260040161039890610aae565b60405180910390fd5b60006002805490506103b1610744565b6103bb9190610afd565b9050600281815481106103d1576103d0610b2e565b5b9060005260206000200160009054906101000a900473ffffffffffffffffffffffffffffffffffffffff16600160006101000a81548173ffffffffffffffffffffffffffffffffffffffff021916908373ffffffffffffffffffffffffffffffffffffffff160217905550600067ffffffffffffffff81111561045757610456610b5d565b5b6040519080825280602002602001820160405280156104855781602001602082028036833780820191505090505b506002908051906020019061049b92919061077a565b5050565b6060600280548060200260200160405190810160405280929190818152602001828054801561052357602002820191906000526020600020905b8160009054906101000a900473ffffffffffffffffffffffffffffffffffffffff1673ffffffffffffffffffffffffffffffffffffffff16815260200190600101908083116104d9575b5050505050905090565b66038d7ea4c680008111610576576040517f08c379a000000000000000000000000000000000000000000000000000000000815260040161056d90610bfe565b60405180910390fd5b6002339080600181540180825580915050600190039060005260206000200160009091909190916101000a81548173ffffffffffffffffffffffffffffffffffffffff021916908373ffffffffffffffffffffffffffffffffffffffff16021790555050565b600160009054906101000a900473ffffffffffffffffffffffffffffffffffffffff1681565b600160009054906101000a900473ffffffffffffffffffffffffffffffffffffffff1673ffffffffffffffffffffffffffffffffffffffff163373ffffffffffffffffffffffffffffffffffffffff1614610692576040517f08c379a000000000000000000000000000000000000000000000000000000000815260040161068990610c90565b60405180910390fd5b600160009054906101000a900473ffffffffffffffffffffffffffffffffffffffff1673ffffffffffffffffffffffffffffffffffffffff166108fc479081150290604051600060405180830381858888f193505050501580156106fa573d6000803e3d6000fd5b50565b600047905090565b6002818154811061071557600080fd5b906000526020600020016000915054906101000a900473ffffffffffffffffffffffffffffffffffffffff1681565b60004442600260405160200161075c93929190610def565b6040516020818303038152906040528051906020012060001c905090565b8280548282559060005260206000209081019282156107f3579160200282015b828111156107f25782518260006101000a81548173ffffffffffffffffffffffffffffffffffffffff021916908373ffffffffffffffffffffffffffffffffffffffff1602179055509160200191906001019061079a565b5b5090506108009190610804565b5090565b5b8082111561081d576000816000905550600101610805565b5090565b600073ffffffffffffffffffffffffffffffffffffffff82169050919050565b600061084c82610821565b9050919050565b61085c81610841565b82525050565b60006020820190506108776000830184610853565b92915050565b600061088882610821565b9050919050565b6108988161087d565b82525050565b60006020820190506108b3600083018461088f565b92915050565b600081519050919050565b600082825260208201905092915050565b6000819050602082019050919050565b6108ee8161087d565b82525050565b600061090083836108e5565b60208301905092915050565b6000602082019050919050565b6000610924826108b9565b61092e81856108c4565b9350610939836108d5565b8060005b8381101561096a57815161095188826108f4565b975061095c8361090c565b92505060018101905061093d565b5085935050505092915050565b600060208201905081810360008301526109918184610919565b905092915050565b600080fd5b6000819050919050565b6109b18161099e565b81146109bc57600080fd5b50565b6000813590506109ce816109a8565b92915050565b6000602082840312156109ea576109e9610999565b5b60006109f8848285016109bf565b91505092915050565b610a0a8161099e565b82525050565b6000602082019050610a256000830184610a01565b92915050565b600082825260208201905092915050565b7f536f6d656e7465206f206f776e657220646f20636f6e747261746f20706f646560008201527f2066617a6572206973736f210000000000000000000000000000000000000000602082015250565b6000610a98602c83610a2b565b9150610aa382610a3c565b604082019050919050565b60006020820190508181036000830152610ac781610a8b565b9050919050565b7f4e487b7100000000000000000000000000000000000000000000000000000000600052601260045260246000fd5b6000610b088261099e565b9150610b138361099e565b925082610b2357610b22610ace565b5b828206905092915050565b7f4e487b7100000000000000000000000000000000000000000000000000000000600052603260045260246000fd5b7f4e487b7100000000000000000000000000000000000000000000000000000000600052604160045260246000fd5b7f4f2076616c6f72207072656369736120736572207375706572696f722061203060008201527f2e30303120657468657200000000000000000000000000000000000000000000602082015250565b6000610be8602a83610a2b565b9150610bf382610b8c565b604082019050919050565b60006020820190508181036000830152610c1781610bdb565b9050919050565b7f4170656e6173206f2056656e6365646f7220706f64652066617a65722069737360008201527f6f21000000000000000000000000000000000000000000000000000000000000602082015250565b6000610c7a602283610a2b565b9150610c8582610c1e565b604082019050919050565b60006020820190508181036000830152610ca981610c6d565b9050919050565b6000819050919050565b610ccb610cc68261099e565b610cb0565b82525050565b600081549050919050565b600081905092915050565b60008190508160005260206000209050919050565b610d058161087d565b82525050565b6000610d178383610cfc565b60208301905092915050565b60008160001c9050919050565b600073ffffffffffffffffffffffffffffffffffffffff82169050919050565b6000610d63610d5e83610d23565b610d30565b9050919050565b6000610d768254610d50565b9050919050565b6000600182019050919050565b6000610d9582610cd1565b610d9f8185610cdc565b9350610daa83610ce7565b8060005b83811015610de257610dbf82610d6a565b610dc98882610d0b565b9750610dd483610d7d565b925050600181019050610dae565b5085935050505092915050565b6000610dfb8286610cba565b602082019150610e0b8285610cba565b602082019150610e1b8284610d8a565b915081905094935050505056fea2646970667358221220e3e1c624fedcfb5193cd89f126127280881c3d3767d3e0c1ac8ec1d5fa0202dc64736f6c63430008110033",
  "immutableReferences": {},
  "source": "// SPDX-License-Identifier: GPL-3.0\r\npragma solidity >=0.7.0 <0.9.0;\r\n\r\ncontract Lottery {\r\n    address payable public manager;\r\n    address payable public currentWinner;\r\n    address payable[] public players;\r\n    uint256 amount;\r\n\r\n    constructor() {\r\n        manager = payable(msg.sender);\r\n    }\r\n\r\n    modifier justOwner() {\r\n        require(\r\n            msg.sender == manager,\r\n            \"Somente o owner do contrato pode fazer isso!\"\r\n        );\r\n        _;\r\n    }\r\n\r\n    modifier justWinner() {\r\n        require(\r\n            msg.sender == currentWinner,\r\n            \"Apenas o Vencedor pode fazer isso!\"\r\n        );\r\n        _;\r\n    }\r\n\r\n    function enter(uint256 value) public payable {\r\n        require(\r\n            value > .001 ether,\r\n            \"O valor precisa ser superior a 0.001 ether\"\r\n        );\r\n        //amount += value;\r\n        players.push(payable(msg.sender));\r\n    }\r\n\r\n    function random() private view returns (uint256) {\r\n        return\r\n            uint256(\r\n                keccak256(\r\n                    abi.encodePacked(block.difficulty, block.timestamp, players)\r\n                )\r\n            );\r\n    }\r\n\r\n    function pickWinner() public justOwner {\r\n        uint256 index = random() % players.length;\r\n        currentWinner = players[index];\r\n        players = new address payable[](0);\r\n    }\r\n\r\n    function getPrize() public payable justWinner {\r\n        currentWinner.transfer(address(this).balance);\r\n    }\r\n\r\n    function getPlayers() public view returns (address payable[] memory) {\r\n        return players;\r\n    }\r\n\r\n    function getCurrentWinner() public view returns (address) {\r\n        return currentWinner;\r\n    }\r\n\r\n    function getAmount() public view returns (uint256) {\r\n        return address(this).balance;\r\n    }\r\n\r\n    //       \r\n    function kill() public justOwner {\r\n        selfdestruct(manager);\r\n    }\r\n}\r\n",
  "sourcePath": "C:\\Users\\User\\Desktop\\lottery-contract\\contracts\\Lottery.sol",
  "compiler": {
    "name": "solc",
    "version": "0.8.17+commit.8df45f5f.Emscripten.clang"
  },
  "schemaVersion": "3.4.11",
  "updatedAt": "2022-12-23T08:09:15.117Z",
  "networkType": "ethereum",
  "devdoc": {
    "kind": "dev",
    "methods": {},
    "version": 1
  },
  "userdoc": {
    "kind": "user",
    "methods": {},
    "version": 1
  }
}